:100000000C9464000C948C000C948C000C948C0068
:100010000C948C000C948C000C948C000C948C0030
:100020000C948C000C948C000C948C000C948C0020
:100030000C948C000C948C000C948C000C948C0010
:100040000C94BD070C948C000C9435090C94830916
:100050000C948C000C948C000C948C000C948C00F0
:100060000C9423050C948C00000000002400270051
:100070002A0000000000250028002B0000000000DE
:1000800023002600290004040404040404040202DA
:100090000202020203030303030301020408102007
:1000A0004080010204081020010204081020000012
:1000B0000007000201000003040600000000000029
:1000C0000000EF001904EF0A11241FBECFEFD8E0A3
:1000D000DEBFCDBF11E0A0E0B1E0EAEEF0E202C089
:1000E00005900D92A439B107D9F713E0A4E9B1E066
:1000F00001C01D92AF3CB107E1F710E0C8ECD0E0C1
:1001000004C02297FE010E943810C23CD107C9F7F3
:100110000E94450B0C9473100C940000A0E0B0E01A
:10012000E4E9F0E00C944410EC01A880B980CA80A6
:10013000DB80A114B104C104D10441F484E2A82EEF
:1001400089EDB82E8BE5C82E87E0D82EC601B50103
:100150002DE133EF41E050E00E941B1027EA31E42B
:1001600040E050E00E94DA0F7B018C01C601B5012E
:100170002DE133EF41E050E00E941B10CA01B901AC
:100180002CEE34EF4FEF5FEF0E94DA0F6E0D7F1D04
:10019000801F911F97FF04C06150704080409048BD
:1001A000688379838A839B839B01AC015F77B90164
:1001B000CA01CDB7DEB7EAE00C9460100E948E0051
:1001C00008958CE691E00E948E00089560936C0182
:1001D00070936D0180936E0190936F01089580EA92
:1001E00091E067E070E041E050E00E94D5038FEAC3
:1001F00091E066E070E042E050E00E94D5038EEBB3
:1002000091E065E070E043E050E00E94D5038DECA2
:1002100091E064E070E044E050E00E94D5038CED92
:1002200091E063E070E045E050E00E94D5038BEE82
:1002300091E062E070E046E050E00E94D503AAEF52
:10024000B1E0E0EAF1E08FE001900D928150E1F73A
:10025000A9E0B2E0EFEAF1E08FE001900D92815069
:10026000E1F7A8E1B2E0EEEBF1E08FE001900D9252
:100270008150E1F7A7E2B2E0EDECF1E08FE0019010
:100280000D928150E1F7A6E3B2E0ECEDF1E08FE0F2
:1002900001900D928150E1F7A5E4B2E0EBEEF1E0C0
:1002A0008FE001900D928150E1F70E940508709354
:1002B00055026093540268EB7BE080E090E00E947E
:1002C000990D6053784F70935702609356020895CA
:1002D00090939F0180939E0184E991E069E00E94E0
:1002E000630308956F927F928F929F92AF92BF9215
:1002F000CF92DF92EF92FF920F931F93CF93DF93F2
:100300008AEF91E00E94DA065C0189E092E00E94A7
:10031000DA06A80EB91E51E0652E712C41E0842E3C
:10032000912CCC24DD24760134E0EE0CFF1C3A95B0
:10033000E1F7EC18FD088AEF91E0E80EF91EC7011D
:100340000E94DA068C01C6010196EC0124E0CC0F74
:10035000DD1F2A95E1F7C81BD90BC650DE4FCE0131
:100360000E94DA06080F191F0A151B0554F4C7016D
:100370000E94DA065C01CE010E94DA06A80EB91EC0
:1003800034010894811C911C82E090E0C80ED91EB3
:1003900094E08916910439F6C301DF91CF911F9142
:1003A0000F91FF90EF90DF90CF90BF90AF909F9014
:1003B0008F907F906F900895EF92FF920F931F930D
:1003C0000E9472017C010BEA13E0C80160E071E059
:1003D0000E948C0CC801B7014AE050E00E946D0CED
:1003E000C7010E9468011F910F91FF90EF9008953F
:1003F000CF93DF938BEA93E060E171E00E948C0C75
:1004000060915802709159028BEA93E04AE050E003
:100410000E946D0CC0E0D0E08BEA93E06EE171E0E9
:100420000E948C0CCE0164E0880F991F6A95E1F759
:100430008C1B9D0B86509E4F0E94DA06AA2797FDC3
:10044000A095BA2FBC01CD010E94BF0E20E030E084
:100450004AE754E40E94240EAB01BC018BEA93E00E
:1004600022E030E00E94730D2196C630D105A1F63E
:10047000DF91CF9108950F931F93CF93DF9300E007
:1004800010E0E80174E0CC0FDD1F7A95E1F7C01BA6
:10049000D10BC650DE4FCE010E94DE06882329F024
:1004A000CE0168EC70E00E94D2060F5F1F4F06304D
:1004B000110539F7DF91CF911F910F9108950F9397
:1004C0001F93CF93DF93C0E0D0E08E01F4E0000FE4
:1004D000111FFA95E1F70C1B1D0B06501E4FC801AA
:1004E0000E94DE06C80160E00E94D2032196C63059
:1004F000D10559F7DF91CF911F910F910895CF93B7
:10050000DF93EC01A4E0CC0FDD1FAA95E1F7C81B37
:10051000D90BC650DE4FCE010E94DE068823E9F0DB
:10052000CE010E94CF038823C1F40E9405089B01DD
:10053000AC018091540290915502281B390B809197
:10054000560290915702281B390BCE01B9010E9427
:10055000D206CE0161E00E94D203DF91CF910895CF
:10056000CF93DF93C0E0D0E0CE01B4E0880F991FB5
:10057000BA95E1F78C1B9D0B86509E4F0E94CF03CE
:10058000882311F481E005C02196C630D10561F7BA
:1005900080E0DF91CF910895CF93DF930E9405080B
:1005A000209154023091550240E050E0621B730BE1
:1005B000840B950B2091560230915702442737FD4A
:1005C0004095542F2617370748075907F0F58BEA4F
:1005D00093E062E371E00E948C0C6091580270918C
:1005E00059028BEA93E04AE050E00E946D0C09C08A
:1005F000C0E0D0E0CE010E947F022196C630D10536
:10060000C9F70E94B002882399F70E94F8018091EF
:100610005802909159020196909359028093580282
:100620000E940508709355026093540260ED77E0D4
:1006300080E090E00E94990D6053784F70935702CC
:10064000609356020E945F0202C00E943B028091AA
:1006500058029091590206979CF00E94DC010E947A
:100660005F028BEA93E061E471E00E94860D8AEFFD
:1006700091E00E94DE068823D1F30C940000F7CFAE
:10068000DF91CF9108950F931F9300EA12E0C80104
:100690000E94A80484E991E06EE971E042E09801CB
:1006A0000E94BC030BEA13E0C80140E855E260E099
:1006B00070E00E94BE09C80163E571E00E94860DEA
:1006C0001F910F910895FF920F931F93CF93DF9384
:1006D000EC01FC80888199810E94DF03A881B981A7
:1006E000ED91FC9111970190F081E02DCD0166E034
:1006F0000995A881B981ED91FC9111970190F08144
:10070000E02DCD0165E80995A881B981ED91FC91B5
:1007100011970190F081E02DCD016C81099500E0E9
:1007200010E010C0EA81FB81E00FF11F6081F62626
:10073000ED91FC9111970190F081E02DCD0109958B
:100740000F5F1F4F8C8190E0A881B98108171907AE
:100750004CF3ED91FC9111970190F081E02DCD01CA
:100760006F2D0995888199810E94A404DF91CF9112
:100770001F910F91FF9008950F931F938C01842F69
:10078000F8017383628344833183208390E00E9465
:100790003607F801858396831F910F910895FC0118
:1007A00086850895FC01668708950F931F938C0139
:1007B0000E940F07F80116861F910F91089581E09E
:1007C00080939F0260937C0210929D0210929E0281
:1007D000089520917B0230E080917A02281B310934
:1007E000C901089540917A0280917B02481718F060
:1007F0002FEF3FEF0AC0E42FF0E0E65AFD4F808173
:10080000282F30E04F5F40937A02C9010895E091AC
:100810007A0280917B02E81718F0EFEFFFEF06C035
:10082000F0E0E65AFD4F8081E82FF0E0CF01089517
:1008300008951092A3021092A20288EE93E0A0E025
:10084000B0E08093A4029093A502A093A602B09377
:10085000A70288E791E09093A1028093A0020895F7
:10086000CF92DF92EF92FF920F931F93CF93DF937C
:100870007C016B018A0180919F028823A1F0C0E076
:10088000D0E00DC0D701ED91FC91D601AC0FBD1F9A
:100890000190F081E02DC7016C9109952196C01758
:1008A000D10780F304C0CB01642F0E940805C80162
:1008B000DF91CF911F910F91FF90EF90DF90CF903C
:1008C0000895DF93CF930F92CDB7DEB7FC01698314
:1008D00080919F028823C9F080919E02803238F077
:1008E00081E090E09383828320E030E015C0809126
:1008F0009D02E82FF0E0E358FD4F998190838F5FD0
:1009000080939D0280939E0205C0CE01019661E016
:100910000E94080521E030E0C9010F90CF91DF91DE
:1009200008950F93062F80917C026DE772E040914D
:100930009E0221E00E94B30410929D0210929E023A
:1009400010929F020F91089561E00E949104089512
:1009500010927A0210927B0210929D0210929E02D7
:100960000E94B40608950F931F93582F122F4132FF
:1009700010F081E04AC08091AC028823E1F782E068
:100980008093AC020093AE028FEF80931903109214
:10099000D4024093D502A4EBB2E0FB0102C08191E6
:1009A0008D938E2F861B8417D0F31092AD02809109
:1009B000AD02550F852B8093AD028091AF0281303F
:1009C00041F41092AF028091AD028093BB0085ECA0
:1009D00001C085EE8093BC00112321F08091AC0210
:1009E0008230E1F3809119038F3F11F480E00DC054
:1009F00080911903803211F482E007C080911903BD
:100A0000803311F084E001C083E01F910F910895BD
:100A1000482F613210F081E008958091AC0284305B
:100A200011F082E008956093F702A6EDB2E0842F02
:100A30009C01F90102C081918D938E2F841B861732
:100A4000D0F380E008951F920F920FB60F921124F9
:100A50002F933F934F935F936F937F938F939F93C6
:100A6000AF93BF93EF93FF938091B90090E0887F9D
:100A700090708036910509F4F2C081369105CCF56D
:100A80008832910509F47BC089329105B4F4803134
:100A9000910509F46FC0813191053CF4009709F488
:100AA00047C1089709F04FC165C08831910509F425
:100AB00066C0809709F047C182C08034910509F46F
:100AC000A4C08134910544F48033910509F482C0B7
:100AD000C89709F038C189C08035910509F489C0EB
:100AE0008835910509F496C08834910509F02BC129
:100AF000AEC08839910509F413C189399105ECF428
:100B00008837910509F4ABC0893791054CF48836D4
:100B1000910509F4A4C08037910509F014C19FC064
:100B20008838910509F4FCC08039910509F49DC00D
:100B30008038910509F007C198C0803B910509F400
:100B4000C6C0813B91054CF4803A910509F49FC0E1
:100B5000883A910509F0F7C0BAC0803C910509F4C4
:100B6000E3C0883C910509F4DFC0883B910509F09A
:100B7000EAC0C2C08091AD028093BB00CFC090910B
:100B8000D4028091D502981768F49091D402E92F8D
:100B9000F0E0EC54FD4F80818093BB009F5F909309
:100BA000D402BCC08091AE02882309F44BC085ED0D
:100BB0008093BC008091BC0084FDFCCFC2C080E269
:100BC0008093190385ED8093BC008091BC0084FD67
:100BD000FCCFB7C080E38093190385ED8093BC0000
:100BE0008091BC0084FDFCCFACC088E380931903E6
:100BF0009BC08091D4029091BB00E82FF0E0EC54B0
:100C0000FD4F90838F5F8093D4029091D4028091A6
:100C1000D50282C08091D4029091BB00E82FF0E011
:100C2000EC54FD4F90838F5F8093D4028091AE028D
:100C3000882341F085ED8093BC008091BC0084FD49
:100C4000FCCF7FC081E08093AF0284EA6EC085ED67
:100C50008093BC008091BC0084FDFCCF72C083E017
:100C60008093AC021092180359C08091180380320F
:100C700008F056C0809118039091BB00E82FF0E077
:100C8000E850FD4F90838F5F8093180347C0809199
:100C90001803803230F4E0911803F0E0E850FD4F83
:100CA000108285ED8093BC008091BC0084FDFCCF58
:100CB0001092AC0260911803E091B202F091B3027D
:100CC00088EF92E070E00995109218032DC084E03F
:100CD0008093AC021092F6021092F702E091B002FB
:100CE000F091B10209958091F702882329F481E0FF
:100CF0008093F7021092D6029091F602E92FF0E06D
:100D0000EA52FD4F80818093BB009F5F9093F60273
:100D10009091F6028091F702981710F485EC01C0CB
:100D200085E88093BC000FC085EC8093BC0009C0AF
:100D30001092190385ED8093BC008091BC0084FD66
:100D4000FCCF1092AC02FF91EF91BF91AF919F91B8
:100D50008F917F916F915F914F913F912F910F9064
:100D60000FBE0F901F9018951092AC0281E08093F7
:100D7000AE021092AF0282E161E00E948D0883E131
:100D800061E00E948D08E9EBF0E080818E7F808336
:100D900080818D7F808388E48093B80085E4809390
:100DA000BC000895FC0182819381860F971F938375
:100DB00082830895FC01828193810895CF93DF930C
:100DC000EC0188810E94E1089F838E83892B19F5AD
:100DD0000E940508288539854A855B85621B730B4F
:100DE000840B950B2C853D85442737FD4095542F6A
:100DF000261737074807590740F40E9405086887F7
:100E000079878A879B8781E007C00E9405086887E9
:100E100079878A879B8780E0DF91CF910895CF9271
:100E2000DF92EF92FF920F931F938C01D62EC72E65
:100E30007A01862F60E00E944E08F801D082C182BC
:100E4000F582E482138212820E940508F80160870D
:100E500071878287938784E190E0958784871F91CB
:100E60000F91FF90EF90DF90CF9008950F931F9315
:100E7000CF93DF93BC018230910510F462E070E003
:100E8000E091CD03F091CE03A0E0B0E040E050E06F
:100E900024C08081918186179707D0F08617970725
:100EA00071F482819381109729F013969C938E930D
:100EB00012972CC09093CE038093CD0327C0411589
:100EC000510519F08417950718F4EF018D01AC0155
:100ED000DF01828193819C01F9013097D1F64115A0
:100EE0005105F9F0CA01861B970B8430910580F4F7
:100EF0008A819B810115110521F0F801938382837A
:100F000004C09093CE038093CD03FE0132962FC090
:100F1000FE01E80FF91F619371930297998388830B
:100F200026C08DB79EB788579040209170013091B0
:100F3000710128173907C8F4AC01421B530B46173F
:100F4000570798F0CB0102964817590770F0820FA7
:100F5000931F90937101809370019093730180931C
:100F60007201F9016193719302C0E0E0F0E0CF01FA
:100F7000DF91CF911F910F9108951F920F920FB69D
:100F80000F9211242F933F938F939F93AF93BF930F
:100F900080911E0390911F03A0912003B091210323
:100FA000309122030196A11DB11D232F2D5F2D37F6
:100FB00020F02D570196A11DB11D2093220380938F
:100FC0001E0390931F03A0932003B09321038091ED
:100FD0001A0390911B03A0911C03B0911D0301966D
:100FE000A11DB11D80931A0390931B03A0931C03B2
:100FF000B0931D03BF91AF919F918F913F912F911E
:101000000F900FBE0F901F9018958FB7F8942091F6
:101010001E0330911F0340912003509121038FBF85
:10102000B901CA010895789484B5826084BD84B5FD
:10103000816084BD85B5826085BD85B5816085BDD3
:10104000EEE6F0E0808181608083E1E8F0E01082EC
:10105000808182608083808181608083E0E8F0E02D
:10106000808181608083E1EBF0E080818460808317
:10107000E0EBF0E0808181608083EAE7F0E080814E
:1010800084608083808182608083808181608083AE
:101090008081806880831092C1000895CF93DF9390
:1010A000482F50E0CA0186569F4FFC0134914A57A1
:1010B0005F4FFA018491882369F190E0880F991FAE
:1010C000FC01E859FF4FA591B491FC01EE58FF4F88
:1010D000C591D491662351F42FB7F8948C91932F36
:1010E000909589238C93888189230BC0623061F4A9
:1010F0002FB7F8948C91932F909589238C938881A6
:10110000832B88832FBF06C09FB7F8948C91832BC5
:101110008C939FBFDF91CF910895482F50E0CA0173
:1011200082559F4FFC012491CA0186569F4FFC01B6
:1011300094914A575F4FFA013491332309F440C028
:10114000222351F1233071F0243028F42130A1F012
:10115000223011F514C02630B1F02730C1F0243010
:10116000D9F404C0809180008F7703C08091800003
:101170008F7D8093800010C084B58F7702C084B5C6
:101180008F7D84BD09C08091B0008F7703C08091AE
:10119000B0008F7D8093B000E32FF0E0EE0FFF1FD3
:1011A000EE58FF4FA591B4912FB7F894662321F420
:1011B0008C919095892302C08C91892B8C932FBFA1
:1011C0000895682F70E0CB0182559F4FFC01249158
:1011D000CB0186569F4FFC0144916A577F4FFB011C
:1011E0009491992319F420E030E03CC0222351F17E
:1011F000233071F0243028F42130A1F0223011F591
:1012000014C02630B1F02730C1F02430D9F404C026
:10121000809180008F7703C0809180008F7D8093C4
:10122000800010C084B58F7702C084B58F7D84BDE7
:1012300009C08091B0008F7703C08091B0008F7D8E
:101240008093B000892F90E0880F991F84589F4F9A
:10125000FC01A591B4918C9120E030E0842311F041
:1012600021E030E0C901089508951F920F920FB652
:101270000F9211242F933F934F938F939F93EF934C
:10128000FF938091C00082FD1DC04091C600209157
:101290006303309164032F5F3F4F2F733070809151
:1012A0006503909166032817390771F0E091630395
:1012B000F0916403ED5DFC4F408330936403209311
:1012C000630302C08091C600FF91EF919F918F91BF
:1012D0004F913F912F910F900FBE0F901F90189537
:1012E000E091B703F091B803E05CFF4F81919191D9
:1012F00020813181821B930B8F739070892B11F0A9
:101300000E94340908951F920F920FB60F92112474
:101310002F933F938F939F93EF93FF932091A70376
:101320003091A8038091A9039091AA032817390747
:1013300031F48091C1008F7D8093C10014C0E09191
:10134000A903F091AA03E959FC4F20818091A903D8
:101350009091AA0301968F7390709093AA03809343
:10136000A9032093C600FF91EF919F918F913F9128
:101370002F910F900FBE0F901F901895AF92BF92B4
:10138000DF92EF92FF920F931F93CF93DF93EC01C5
:101390007A018B01DD24403081EE580780E0680738
:1013A00080E0780711F0DD24D39491E0A92EB12CD0
:1013B000EC89FD89DD2069F0C50108A002C0880F15
:1013C000991F0A94E2F7808360E079E08DE390E072
:1013D00005C0108260E874E88EE190E0A8019701F2
:1013E0000E94F90F2150304040405040569547959B
:1013F0003795279580E12030380720F0DD2011F067
:10140000DD24D6CFE889F9893083EA89FB892083F6
:1014100019A2EE89FF89408121E030E0C9010C8CDE
:1014200002C0880F991F0A94E2F7482B4083EE8987
:10143000FF894081C9010D8C02C0880F991F0A9451
:10144000E2F7482B4083EE89FF894081C9010E8C69
:1014500002C0880F991F0A94E2F7482B4083EE8957
:10146000FF8980810F8C02C0220F331F0A94E2F79C
:10147000209528232083DF91CF911F910F91FF901A
:10148000EF90DF90BF90AF900895DC011C96ED9136
:10149000FC911D97E05CFF4F2191319180819181FA
:1014A000281B390B2F733070C9010895DC011C967D
:1014B000ED91FC911D97E05CFF4F20813181E0545C
:1014C000F040DF01AE5BBF4F8D919C9111972817C3
:1014D000390719F42FEF3FEF07C08D919C91E80F6A
:1014E000F91F8081282F30E0C9010895DC011C9686
:1014F000ED91FC911D97E05CFF4F20813181E0541C
:10150000F040DF01AE5BBF4F8D919C911197281782
:10151000390719F42FEF3FEF10C08D919C9111976F
:10152000E80FF91F20818D919C91119701968F737F
:10153000907011969C938E9330E0C9010895DC0160
:1015400091968C919197882339F05496ED91FC9166
:101550005597808186FFF9CF91961C920895CF937D
:10156000DF93EC01EE85FF85E05CFF4F2081318148
:10157000E054F0402F5F3F4F2F733070DF01AE5BC0
:10158000BF4F8D919C91119728173907D1F3E05CDB
:10159000FF4F80819181E054F040E80FF91F608394
:1015A000EE85FF85E05CFF4F31832083EE89FF8964
:1015B000208181E090E00F8C02C0880F991F0A946F
:1015C000E2F7282B208381E089A3EC89FD898081C3
:1015D0008064808381E090E0DF91CF910895109244
:1015E000AE031092AD0388EE93E0A0E0B0E08093EC
:1015F000AF039093B003A093B103B093B20388E814
:1016000091E09093AC038093AB0383E293E09093DB
:10161000B8038093B70387E693E09093BA0380936F
:10162000B90385EC90E09093BC038093BB0384ECFA
:1016300090E09093BE038093BD0380EC90E0909384
:10164000C0038093BF0381EC90E09093C20380932A
:10165000C10382EC90E09093C4038093C30386ECB3
:1016600090E09093C6038093C50384E08093C70302
:1016700083E08093C80387E08093C90385E080936B
:10168000CA0381E08093CB030895CF93DF930E9438
:1016900013080E944303C0E7D9E00E94CC022097C0
:1016A000E1F30E947009F9CFCF92DF92EF92FF929F
:1016B0000F931F93CF93DF937C016B018A01C0E0EE
:1016C000D0E00FC0D6016D916D01D701ED91FC9175
:1016D0000190F081E02DC7010995C80FD91F015075
:1016E00010400115110571F7CE01DF91CF911F91C7
:1016F0000F91FF90EF90DF90CF900895EF92FF92BF
:101700000F931F938C01DC01ED91FC910190F0810E
:10171000E02D6DE009957C01D801ED91FC910190DF
:10172000F081E02DC8016AE009959C012E0D3F1D56
:10173000C9011F910F91FF90EF900895CF93DF9310
:10174000EC016115710519F420E030E00FC0DB01F8
:101750000D900020E9F71197A61BB70BE881F981DE
:101760000280F381E02DAD0109959C01C901DF9153
:10177000CF9108954F925F927F928F929F92AF92F6
:10178000BF92CF92DF92EF92FF920F931F93DF935E
:10179000CF93CDB7DEB7A1970FB6F894DEBF0FBEDB
:1017A000CDBF2C01742ECB01223008F42AE019A2FF
:1017B00031E2C32ED12CCC0EDD1E822E9924AA2418
:1017C000BB24672D752FA50194010E94F90F7901A3
:1017D0008A01C801B701A50194010E94DA0F472DC3
:1017E000461B0894C108D1084A3014F4405D01C07A
:1017F000495CF6014083E114F1040105110521F073
:101800007E2C5F2DC801DDCFC201B6010E949E0B68
:10181000A1960FB6F894DEBF0FBECDBFCF91DF917A
:101820001F910F91FF90EF90DF90CF90BF90AF90FE
:101830009F908F907F905F904F900895DC012115CD
:10184000310541F4ED91FC910190F081E02D642F80
:10185000099508950E94BA0B0895CF92DF92EF92F6
:10186000FF920F931F93CF93DF93EC016A017B01EB
:101870002115310541F4E881F9810190F081E02DD5
:10188000642F09951FC02A303105D1F477FF17C0A6
:10189000E881F9810190F081E02D6DE209958C01DC
:1018A00044275527BA014C195D096E097F09CE01FD
:1018B0002AE00E94BA0B9801280F391F04C02AE0C1
:1018C0000E94BA0B9C01C901DF91CF911F910F912A
:1018D000FF90EF90DF90CF900895CF92DF92EF923C
:1018E000FF920F931F936C017B019A010027F7FC75
:1018F0000095102FB801A7010E942D0C8C01C60184
:101900000E947E0B080F191FC8011F910F91FF90B5
:10191000EF90DF90CF9008950E949E0B08957F92E4
:101920008F929F92AF92BF92CF92DF92EF92FF92EF
:101930000F931F93CF93DF934C017A018B01722E8B
:10194000CB01BA01A80197010E94D60F882321F08C
:10195000C4016EE571E021C0C0E0D0E0570168012C
:10196000E894D7F8C601B5012FEF3FEF4FE75FE7E7
:101970000E94D60F882351F4C601B5012FEF3FEF27
:101980004FE75FE70E94200E181614F0C1E0D0E088
:10199000219739F0C40162E671E00E949E0BEC01D0
:1019A00093C0C801B7012FEF3FEF4FE75FE40E94FC
:1019B0006F0F181654F0C801B7012FEF3FEF4FE734
:1019C0005FEC0E94200E882324F4C40166E671E0D7
:1019D000E4CFC801B70120E030E040E050E00E94D1
:1019E000200E87FD03C0C0E0D0E00EC0D401ED9111
:1019F000FC910190F081E02DC4016DE20995EC01AC
:101A000017FB109517F9109520E030E040E05FE3F8
:101A1000DD240BC0CA01B90120E030E040E251E40E
:101A20000E94240E9B01AC01D394D71498F3C801F3
:101A3000B7010E94BC0D5B016C010E94910E7B01FD
:101A40008C01C401B801A7012AE030E00E941E0CFD
:101A5000C80FD91F772039F0C4016AE671E00E94EF
:101A60009E0BC80FD91FC801B7010E94BD0E9B0174
:101A7000AC01C601B5010E94BB0D24C020E030E0DE
:101A800040E251E40E94730F7B018C010E948C0E96
:101A90005B016C01CC24B7FCC094DC2CC401B60102
:101AA000A5012AE030E00E942D0CC80FD91FC60105
:101AB000B5010E94BF0E9B01AC01C801B7010E9495
:101AC000BB0D7A947720D1F6CE01DF91CF911F9193
:101AD0000F91FF90EF90DF90CF90BF90AF909F90CD
:101AE0008F907F900895EF92FF920F931F937C0148
:101AF0000E948F0C8C01C7010E947E0B080F191FDA
:101B0000C8011F910F91FF90EF900895EF92FF92FF
:101B10000F931F937C010E949E0B8C01C7010E94B2
:101B20007E0B080F191FC8011F910F91FF90EF90B6
:101B30000895EF92FF920F931F937B018C01611523
:101B400071058105910529F420E030E040E050E086
:101B50000BC00E94E100A80197010E941B10AC017C
:101B6000CB01DA019C01AD01B901CA011F910F91AE
:101B7000FF90EF9008955058BB27AA270ED075C14B
:101B800066D130F06BD120F031F49F3F11F41EF498
:101B90005BC10EF4E095E7FB51C1E92F77D180F3EB
:101BA000BA17620773078407950718F071F49EF55A
:101BB0008FC10EF4E0950B2EBA2FA02D0B01B901A9
:101BC00090010C01CA01A0011124FF27591B99F0B3
:101BD000593F50F4503E68F11A16F040A22F232FBF
:101BE000342F4427585FF3CF469537952795A7950F
:101BF000F0405395C9F77EF41F16BA0B620B730BB6
:101C0000840BBAF09150A1F0FF0FBB1F661F771F26
:101C1000881FC2F70EC0BA0F621F731F841F48F4DB
:101C2000879577956795B795F7959E3F08F0B3CF61
:101C30009395880F08F09927EE0F9795879508954B
:101C4000D9D008F481E008950CD00FC107D140F03D
:101C5000FED030F021F45F3F19F0F0C0511139C1CE
:101C6000F3C014D198F39923C9F35523B1F3951B0D
:101C7000550BBB27AA2762177307840738F09F5FAD
:101C80005F4F220F331F441FAA1FA9F333D00E2E1C
:101C90003AF0E0E830D091505040E695001CCAF789
:101CA00029D0FE2F27D0660F771F881FBB1F26174E
:101CB00037074807AB07B0E809F0BB0B802DBF0121
:101CC000FF2793585F4F2AF09E3F510568F0B6C03A
:101CD00000C15F3FECF3983EDCF3869577956795FE
:101CE000B795F7959F5FC9F7880F911D96958795D2
:101CF00097F90895E1E0660F771F881FBB1F6217F1
:101D000073078407BA0720F0621B730B840BBA0BAE
:101D1000EE1F88F7E095089504D06894B111D9C0FA
:101D20000895BCD088F09F5790F0B92F9927B751EC
:101D3000A0F0D1F0660F771F881F991F1AF0BA958F
:101D4000C9F712C0B13081F0C3D0B1E00895C0C06E
:101D5000672F782F8827B85F39F0B93FCCF3869585
:101D600077956795B395D9F73EF4909580957095E2
:101D700061957F4F8F4F9F4F0895E89409C097FB5F
:101D80003EF490958095709561957F4F8F4F9F4F52
:101D90009923A9F0F92F96E9BB279395F695879596
:101DA00077956795B795F111F8CFFAF4BB0F11F459
:101DB00060FF1BC06F5F7F4F8F4F9F4F16C0882300
:101DC00011F096E911C0772321F09EE8872F762F36
:101DD00005C0662371F096E8862F70E060E02AF077
:101DE0009A95660F771F881FDAF7880F9695879563
:101DF00097F90895990F0008550FAA0BE0E8FEEF38
:101E000016161706E807F907C0F012161306E407BE
:101E1000F50798F0621B730B840B950B39F40A26B7
:101E200061F0232B242B252B21F408950A2609F495
:101E3000A140A6958FEF811D811D089597F99F6799
:101E400080E870E060E008959FEF80EC0895002442
:101E50000A941616170618060906089500240A940F
:101E600012161306140605060895092E0394000C95
:101E700011F4882352F0BB0F40F4BF2B11F460FF24
:101E800004C06F5F7F4F8F4F9F4F089557FD90584D
:101E9000440F551F59F05F3F71F04795880F97FB2E
:101EA000991F61F09F3F79F08795089512161306E8
:101EB0001406551FF2CF4695F1DF08C01616170617
:101EC0001806991FF1CF869571056105089408954C
:101ED000E894BB2766277727CB0197F908958ADF17
:101EE00008F48FEF08950BD0C0CFB1DF28F0B6DF34
:101EF00018F0952309F0A2CFA7CF1124EACFC6DFAF
:101F0000A0F3959FD1F3950F50E0551F629FF0010C
:101F1000729FBB27F00DB11D639FAA27F00DB11D65
:101F2000AA1F649F6627B00DA11D661F829F2227EE
:101F3000B00DA11D621F739FB00DA11D621F839F75
:101F4000A00D611D221F749F3327A00D611D231F4B
:101F5000849F600D211D822F762F6A2F11249F5799
:101F600050408AF0E1F088234AF0EE0FFF1FBB1FBC
:101F7000661F771F881F91505040A9F79E3F51055B
:101F800070F05CCFA6CF5F3FECF3983EDCF3869514
:101F900077956795B795F795E7959F5FC1F7FE2B06
:101FA000880F911D9695879597F9089523DF880BE3
:101FB000990B0895629FD001739FF001829FE00DFD
:101FC000F11D649FE00DF11D929FF00D839FF00DB8
:101FD000749FF00D659FF00D9927729FB00DE11D64
:101FE000F91F639FB00DE11DF91FBD01CF01112441
:101FF0000895A1E21A2EAA1BBB1BFD010DC0AA1F4A
:10200000BB1FEE1FFF1FA217B307E407F50720F061
:10201000A21BB30BE40BF50B661F771F881F991FDC
:102020001A9469F760957095809590959B01AC0125
:10203000BD01CF01089597FB092E05260ED057FD4F
:1020400004D0D7DF0AD0001C38F450954095309565
:1020500021953F4F4F4F5F4F0895F6F7909580952C
:10206000709561957F4F8F4F9F4F0895EE0FFF1F23
:102070000590F491E02D09942F923F924F925F9238
:102080006F927F928F929F92AF92BF92CF92DF9288
:10209000EF92FF920F931F93CF93DF93CDB7DEB7ED
:1020A000CA1BDB0B0FB6F894DEBF0FBECDBF099481
:1020B0002A88398848885F846E847D848C849B84D8
:1020C000AA84B984C884DF80EE80FD800C811B81E6
:1020D000AA81B981CE0FD11D0FB6F894DEBF0FBE15
:0A20E000CDBFED010895F894FFCF85
:1020EA0077696E6E696E675F7465616D202D200079
:1020FA00726F756E645F6F766572202D2000696E4F
:10210A00646976696475616C5F73636F7265202DAB
:10211A002000726F756E645F7374617274202D2073
:10212A0000507265737320746F20726573746172E4
:10213A0074210067616D655F7374617274006E610A
:10214A006E00696E66006F7666002E000100000060
:10215A00CF0364000000000061043004E903F203C5
:10216A000704180400000000AF0A540B450A760A57
:04217A00560A9F0A58
:00000001FF
